:100000000C94D01B0C94011C0C94011C0C94011C2E
:100010000C94011C0C94011C0C94011C0C94011CEC
:100020000C94011C0C94011C0C94011C0C94011CDC
:100030000C94011C0C94011C0C94011C0C94011CCC
:100040000C94011C0C949BBE0C94011C0C94011C80
:100050000C94011C0C94011C0C9445820C94E881B6
:100060000C94011C0C94945C0C94011C0C94011CC9
:100070000C94011C0C94011C0C94011C0C94011C8C
:100080000C94011C0C94011C0C94011C0C94011C7C
:100090000C94011C0C94011C0C94011C0C943ABA95
:1000A0000C94011C0C94011C0C94011C0C94011C5C
:1000B0000C94011C0C94011C0C94011C0C94011C4C
:1000C0000C94011C0C94011C0C94011C0C94011C3C
:1000D0000C94011C0C94011C0C94011C0C94011C2C
:1000E0000C94011C833586358A358E3592359635CC
:1000F0008C369A359E35A3358C36A835AE35B2355B
:10010000B635BA35BE358C36C235C635CC358C36AB
:10011000D235E835EA35F835FA35FC35FE350436A2
:10012000063608360A361436163618361A3620368B
:1001300022368C368C368C368C368C368C368C3619
:100140008C368C368C368C368C368C368C368C369F
:100150008C368C368C368C368C368C368C368C368F
:100160008C368C368C368C368C368C368C368C367F
:100170008C368C368C368C368C368C368C368C366F
:100180008C368C368C368C368C368C368C368C365F
:100190008C368C368C368C368C368C368C368C364F
:1001A0008C368C368C368C368C368C362C364D36DE
:1001B0006680698058805C806080A0806D807180DE
:1001C00077807B807F80858089808D80A0809380F0
:1001D00097809B8017811C8121812B813581AE8185
:1001E0003F8147814F81598163816D817C81868107
:1001F000AE8190819A81A481789478948694949425
:10020000B094BE94CC94DA94EB94A294084AD73B71
:100210003BCE016E84BCBFFDC12F3D6C74319ABDD5
:1002200056833DDA3D00C77F11BED9E4BB4C3E91F9
:100230006BAAAABE000000803F05A84CCDB2D44EE8
:10024000B93836A9020C50B9918688083CA6AAAAEA
:100250002ABE000000803F004E414E494E4954598D
:10026000494E46CDCCCC3D0AD7233C17B7D1387781
:10027000CC2B329595E6241FB14F0A000020410097
:1002800000C84200401C4620BCBE4CCA1B0E5AAEE1
:10029000C59D7443617264206572726F723A004E3C
:1002A0006F74205344207072696E74696E67002FFA
:1002B000005344207072696E74696E6720627974AD
:1002C0006520002E0044656C6574696F6E20666160
:1002D000696C65642C2046696C653A200046696C3F
:1002E000652064656C657465643A002E006F706506
:1002F0006E206661696C65642C2046696C653A20E5
:1003000000504944204175746F74756E65206669AC
:100310006E69736865642120507574207468652067
:100320004B702C204B6920616E64204B6420636FFE
:100330006E7374616E747320696E746F20436F6E98
:1003400066696775726174696F6E2E680050494402
:10035000204175746F74756E65206661696C6564A3
:10036000212074696D656F75740020403A006F6BD1
:1003700020543A006F6B20423A00504944204175A6
:10038000746F74756E65206661696C6564212054B4
:10039000656D706572617475726520746F6F206829
:1003A00069676800204B643A2000204B693A2000BE
:1003B000204B703A200020436C61737369632050B6
:1003C000494420002054753A2000204B753A200003
:1003D000206D61783A2000206D696E3A200020641B
:1003E0003A200020626961733A200050494420415C
:1003F00075746F74756E6520737461727400504902
:1004000044204175746F74756E65206661696C6512
:10041000642E204261642065787472756465722070
:100420006E756D6265722E000D0A003F0056657292
:1004300073696F6E20444556000D0A00556E6B6E51
:100440006F776E20636F6D6D616E643A2000544566
:1004500053540D0A002200556E6B6E6F776E206349
:100460006F6D6D616E643A202200456C6563747235
:100470006F6E6963735F746573740041637469764A
:10048000652045787472756465723A2000496E760D
:10049000616C6964206578747275646572005400DB
:1004A00020423A300020423A31006F6B20523A002D
:1004B00020633A0020643A0020693A0020703A0034
:1004C0006F6B002200556E6B6E6F776E20636F6DE1
:1004D0006D616E643A2022006F70656E005452495F
:1004E000474745524544007A5F6D61783A20006F76
:1004F00070656E0054524947474552454400795F44
:100500006D61783A20006F70656E0054524947471C
:100510004552454400785F6D696E3A20005265701F
:100520006F7274696E6720656E6473746F70207388
:100530007461747573004649524D574152455F4E80
:10054000414D453A4D61726C696E20556C74696D10
:10055000616B6572323B20537072696E7465722FE5
:100560006772626C206D617368757020666F7220AF
:1005700067656E36204649524D574152455F555288
:100580004C3A687474703A2F2F6769746875622EDC
:10059000636F6D2F556C74696D616B65722050527D
:1005A0004F544F434F4C5F56455253494F4E3A318B
:1005B0002E30204D414348494E455F545950453AED
:1005C000556C74696D616B65722045585452554481
:1005D00045525F434F554E543A310A005A3A00593A
:1005E0003A0020436F756E7420583A2000453A0057
:1005F0005A3A00593A00583A0020423A0020453A07
:1006000000543A003F0020573A0020453A00543A3F
:10061000002042403A0020403A00202F0020423A79
:1006200000202F006F6B20543A002569206D696E01
:100630002C2025692073656300456E642066696C13
:1006400065206C69737400426567696E2066696C29
:1006500065206C697374004350450041425300505B
:100660004C4100496E76616C6964206D61746572FD
:1006700069616C2073657474696E677320666F7549
:100680006E642C20726573657474696E6720746F74
:100690002064656661756C7473006563686F3A0009
:1006A0002020506C616E6E6572427566666572429E
:1006B000797465733A20002046726565204D656D3A
:1006C0006F72793A20004A756C2032342032303112
:1006D0003800436F6D70696C65643A20005665722E
:1006E00073696F6E2044455600207C204175746804
:1006F0006F723A20004A756C203234203230313823
:100700002031333A33353A323100204C6173742052
:10071000557064617465643A2000312E302E3000CB
:100720004D61726C696E200020536F667477617240
:100730006520526573657400205761746368646F47
:1007400067205265736574002042726F776E206F68
:100750007574205265736574002045787465726EF7
:10076000616C20526573657400506F7765725570C7
:10077000007374617274004D383420582059205A27
:100780002045006563686F3A00256920686F7572BF
:1007900073202569206D696E7574657300446F6EF2
:1007A00065207072696E74696E672066696C650099
:1007B0005072696E7465722073746F707065642016
:1007C00064756520746F206572726F72732E204697
:1007D000697820746865206572726F7220616E643A
:1007E00020757365204D39393920746F2072657317
:1007F000746172742E202854656D70657261747511
:1008000072652069732072657365742E2053657458
:1008100020697420616674657220726573746172F8
:1008200074696E6729006F6B004E6F204C696E65AE
:10083000204E756D62657220776974682063686503
:10084000636B73756D2C204C617374204C696E65FD
:100850003A20004E6F20436865636B73756D207797
:10086000697468206C696E65206E756D6265722CA6
:10087000204C617374204C696E653A200063686592
:10088000636B73756D206D69736D617463682C2083
:100890004C617374204C696E653A20004C696E653A
:1008A000204E756D626572206973206E6F74204CE6
:1008B000617374204C696E65204E756D6265722B94
:1008C000312C204C617374204C696E653A200045D0
:1008D00072726F723A004D313130006572726F7210
:1008E0002077726974696E6720746F2066696C6521
:1008F00000205A3A0020593A0020583A00656E64A8
:1009000073746F7073206869743A20006563686F50
:100910003A00446F6E6520736176696E6720666980
:100920006C652E006F6B004D32390061626F766529
:1009300020746865206172726F772E00796F75720E
:10094000206D616368696E652C0066726F6D20743E
:100950006865206261636B73696465206F66004936
:100960006E73657274206E6577206D61746572694F
:10097000616C0043414E43454C005245414459008F
:10098000466F7277617264696E67206D617465721B
:1009900069616C00636F6D6573206F757420746896
:1009A00065206E6F7A7A6C6500576169742074698E
:1009B0006C6C206D6174657269616C0043414E43DB
:1009C000454C00524541445900696E204D41544503
:1009D0005249414C2E54585400746F20746865205D
:1009E00053442063617264005361766564206D61D5
:1009F00074657269616C73004F4B000A0064696131
:100A00006D657465723D000A00666C6F773D000A83
:100A10000066616E5F73706565643D000A00626523
:100A2000645F74656D70657261747572653D000A0E
:100A3000003D0072657472616374696F6E5F7370FC
:100A40006565645F000A003D0072657472616374DD
:100A5000696F6E5F6C656E6774685F000A003D00C9
:100A600074656D70657261747572655F000A0074FB
:100A7000656D70657261747572653D000A006E6126
:100A80006D653D005B6D6174657269616C5D0A0046
:100A900052656164696E6720636172642E2E2E0058
:100AA000506C6561736520696E7365727420636153
:100AB0007264004E6F2053442D434152442100661E
:100AC000726F6D2074686520534420636172640006
:100AD0006D6174657269616C206C6F616400457250
:100AE000726F7220647572696E670066726F6D2036
:100AF0007468652053442063617264004C6F6164C4
:100B00006564206D6174657269616C73004F4B00A0
:100B1000686173496E76616C696452657472616371
:100B200074696F6E537065656420666F756E6420BE
:100B300070726F626C656D00726574726163746966
:100B40006F6E5F73706565645F00686173496E7690
:100B5000616C696452657472616374696F6E4C652F
:100B60006E67746820666F756E642070726F626C59
:100B7000656D0072657472616374696F6E5F6C6538
:100B80006E6774685F00686173496E76616C696452
:100B90004E6F7A7A6C6554656D70657261747572AA
:100BA0006520666F756E642070726F626C656D0093
:100BB00074656D70657261747572655F00686173EC
:100BC000496E76616C69644469616D657465722013
:100BD000666F756E642070726F626C656D0064691B
:100BE000616D6574657200686173496E76616C69E8
:100BF000644D6174657269616C466C6F7720666FD5
:100C0000756E642070726F626C656D00666C6F77D4
:100C100000686173496E76616C696446616E5370F9
:100C200065656420666F756E642070726F626C65B6
:100C30006D0066616E5F737065656400686173491D
:100C40006E76616C696442656454656D706572614D
:100C50007475726520666F756E642070726F626C59
:100C6000656D006265645F74656D70657261747551
:100C7000726500686173496E76616C69644E6F7A63
:100C80007A6C6554656D7065726174757265206605
:100C90006F756E642070726F626C656D0045727264
:100CA0006F723A0074656D7065726174757265007B
:100CB000416464696E67206D6174657269616C205E
:100CC000006E616D65005B6D6174657269616C5D7C
:100CD0000053746172742072656164206D61746583
:100CE0007269616C7300466F756E64206F6E20636D
:100CF0006172642E004E6F206578706F727420668A
:100D0000696C650052656164696E67206361726435
:100D10002E2E2E00506C6561736520696E736572AE
:100D2000742063617264004E6F2053442D4341521E
:100D30004421005072696E7465722068616C74653C
:100D4000642E206B696C6C28292063616C6C65646F
:100D500021005072696E7465722073746F707065D3
:100D6000642064756520746F206572726F72732ED3
:100D70002046697820746865206572726F72206100
:100D80006E6420757365204D39393920746F207277
:100D90006573746172742E202854656D706572617C
:100DA000747572652069732072657365742E2053A3
:100DB000657420697420616674657220726573744D
:100DC000617274696E6729004D32313820496E7640
:100DD000616C696420657874727564657220004D79
:100DE00031303920496E76616C696420657874729F
:100DF0007564657220004D31303520496E76616C26
:100E0000696420657874727564657220004D3130B4
:100E10003420496E76616C696420657874727564FB
:100E200065722000456E6473746F70207374696C12
:100E30006C207072657373656420616674657220DE
:100E40006261636B696E67206F66662E20456E6413
:100E500073746F7020737475636B3F000000E04023
:100E60000000E0400000E040456E6473746F702045
:100E70006E6F74207072657373656420616674654B
:100E80007220686F6D696E6720646F776E2E2045E3
:100E90006E6473746F702062726F6B656E3F004595
:100EA0006E6473746F70206E6F74207072657373EC
:100EB000656420616674657220686F6D696E672075
:100EC000646F776E2E20456E6473746F702062724B
:100ED0006F6B656E3F00FF010100005C4300004343
:100EE0004300005C4300002110422063308440A591
:100EF00050C660E770088129914AA16BB18CC1ADE1
:100F0000D1CEE1EFF13112100273325222B5529478
:100F100042F772D662399318837BB35AA3BDD39C30
:100F2000C3FFF3DEE36224433420040114E664C704
:100F300074A44485546AA54BB528850995EEE5CF80
:100F4000F5ACC58DD55336722611163006D776F618
:100F5000669556B4465BB77AA719973887DFF7FED0
:100F6000E79DD7BCC7C448E5588668A778400861A4
:100F70001802282338CCC9EDD98EE9AFF948896920
:100F8000990AA92BB9F55AD44AB77A966A711A50B8
:100F90000A333A122AFDDBDCCBBFFB9EEB799B5870
:100FA0008B3BBB1AABA66C877CE44CC55C222C0344
:100FB0003C600C411CAEED8FFDECCDCDDD2AAD0BC0
:100FC000BD688D499D977EB66ED55EF44E133E3258
:100FD0002E511E700E9FFFBEEFDDDFFCCF1BBF3A10
:100FE000AF599F788F8891A981CAB1EBA10CD12DFF
:100FF000C14EF16FE18010A100C230E32004502502
:101000004046706760B9839893FBA3DAB33DC31C75
:10101000D37FE35EF3B1029012F322D23235421451
:101020005277625672EAB5CBA5A89589856EF54FC1
:10103000E52CD50DC5E234C324A0148104667447A1
:101040006424540544DBA7FAB79987B8975FE77E15
:10105000F71DC73CD7D326F2369106B016576676F1
:1010600076154634564CD96DC90EF92FE9C899E961
:10107000898AB9ABA94458654806782768C018E141
:10108000088238A3287DCB5CDB3FEB1EFBF98BD8B5
:101090009BBBAB9ABB754A545A376A167AF10AD091
:1010A0001AB32A923A2EFD0FED6CDD4DCDAABD8B01
:1010B000ADE89DC98D267C076C645C454CA23C83E1
:1010C0002CE01CC10C1FEF3EFF5DCF7CDF9BAFBA55
:1010D000BFD98FF89F176E367E554E745E932EB231
:1010E0003ED10EF01E2073656300206D696E0020F6
:1010F000686F75720020686F757273006275747422
:101100006F6E20746F20636F6E74696E7565005525
:101110006C74696D616B6572212050726573732008
:101120007468650073746172747570206F662079DD
:101130006F75720057656C636F6D6520746F2074F6
:10114000686520666972737400312F323100434F35
:101150004E54494E554500473120462569205A25B1
:1011600069205825692059256900473238205A30AE
:10117000205830205930006275696C64706C61745D
:10118000652E006F662061646A757374696E6720EE
:10119000796F7572007468726F756768207468651E
:1011A0002070726F6365737300492077696C6C20DF
:1011B000677569646520796F750043414E43454CFE
:1011C00000434F4E54494E5545004731204625694E
:1011D000205A256900473238205A3000612066695C
:1011E0007273742072756E2077697A6172642E0052
:1011F00077616C6B20796F75207468726F756768A2
:10120000006669727374207374617274757020491A
:101210002077696C6C004265636175736520746842
:1012200069732069732074686500322F323100437E
:101230004F4E54494E554500473120462569205AA6
:1012400025692058256920592569004732382058DA
:101250003020593000676F696E6720746F20646FAB
:101260002074686174206E6F772E0061646A7573F4
:10127000746D656E74732C207765206172650077DC
:1012800065206E65656420746F20646F20736F6DD8
:1012900065004166746572207472616E73706F725E
:1012A000746174696F6E00332F323100434F4E54B6
:1012B000494E554500473120462569205A300047A0
:1012C0003120462569205825692059256900473174
:1012D00020462569205A350066726F6D2074686556
:1012E000206275696C64706C6174652E0061206D9C
:1012F000696C6C696D6574657220617761790075E0
:101300006E74696C20746865206E6F7A7A6C6520E3
:10131000697300526F74617465207468652062752A
:1013200074746F6E00342F323100434F4E54494E67
:10133000554500434F4E54494E55450047312046D0
:101340002569205A300047312046256920582569F3
:101350002059256900473120462569205A35006605
:10136000726F6D20746865206275696C64706C6161
:1013700074652E0069732061206D696C6C696D6500
:101380007465722061776179007363726577207488
:10139000696C6C20746865206E6F7A7A6C65005495
:1013A00075726E206C656674206275696C64706C11
:1013B00061746500352F323100434F4E54494E550C
:1013C000450066726F6D20746865206275696C6493
:1013D000706C6174652E0069732061206D696C6C9E
:1013E000696D6574657220617761790073637265F8
:1013F000772074696C6C20746865206E6F7A7A6CE3
:1014000065005475726E2072696768742062756930
:101410006C64706C61746500362F323100434F4E3E
:1014200054494E554500473120462569205A300021
:1014300047312046256920582569205925690047EC
:101440003120462569205A35007468652062756927
:101450006C64706C617465206C6576656C2E0070D0
:101460006170657220746F2066696E652D74756E8B
:1014700065006E6F77207573652061207368656500
:1014800074206F66005265706561742074686973BA
:1014900020737465702C2062757400372F32310010
:1014A000434F4E54494E554500626974207265732E
:1014B000697374616E63652E00756E74696C207952
:1014C0006F75206665656C2061006275696C64707B
:1014D0006C61746520616E64206E6F7A7A6C650051
:1014E000536C69646520612070617065722062656B
:1014F000747765656E00382F323100434F4E544982
:101500004E554500434F4E54494E5545007468654D
:10151000206C65667420636F726E65722E2E2E00CD
:10152000526570656174207468697320666F72001B
:10153000392F323100434F4E54494E554500473202
:1015400038205A30007468652072696768742063B7
:101550006F726E65722E2E2E00526570656174205A
:101560007468697320666F720031302F3231004326
:101570004F4E54494E554500444F4E45004D38346A
:101580000047312046313230303020583131302060
:101590005931300053657474696E67732053746FEA
:1015A000726564002044002049002020204D333023
:1015B000312050005049442073657474696E67731C
:1015C0003A00205A0020590020204D323036205851
:1015D00000486F6D65206F666673657420286D6DB9
:1015E000293A00204500205A0020580020420020BF
:1015F000540020204D323035205300416476616E16
:10160000636564207661726961626C65733A205328
:101610003D4D696E20666565647261746520286D54
:101620006D2F73292C20543D4D696E2074726176A4
:10163000656C20666565647261746520286D6D2F28
:1016400073292C20423D6D696E696D756D2073653F
:10165000676D656E742074696D6520286D73292C23
:1016600020583D6D6178696D756D205859206A6507
:10167000726B20286D6D2F73292C20205A3D6D61CF
:1016800078696D756D205A206A65726B20286D6DC2
:101690002F73292C2020453D6D6178696D756D2073
:1016A00045206A65726B20286D6D2F7329002054C8
:1016B0000020204D323034205300416363656C6557
:1016C000726174696F6E3A20533D616363656C6546
:1016D000726174696F6E2C20543D7265747261631F
:1016E0007420616363656C65726174696F6E00205C
:1016F0004500205A0020590020204D32303120581A
:10170000004D6178696D756D20416363656C65722C
:101710006174696F6E20286D6D2F7332293A002035
:101720004500205A0020590020204D3230332058E7
:10173000004D6178696D756D2066656564726174D0
:10174000657320286D6D2F73293A00204500205ABB
:101750000020590020204D39322058005374657004
:10176000732070657220756E69743A00563031309E
:101770000053746F7265642073657474696E677367
:10178000207265747269657665640048617264638D
:101790006F6465642044656661756C74205365747C
:1017A00074696E6773204C6F61646564006563687B
:1017B0006F3A002200656E717565696E67202200C0
:1017C0002200656E717565696E6720220000005CFD
:1017D000430000434300005C4300000000000000A1
:1017E0000000000000000000000000434300005C17
:1017F000434300432F00436C69636B20746F207276
:10180000657475726E004275696C64706C617465A4
:101810002074656D702E3A0056657273696F6E2084
:10182000444556004A756C2032342032303138201D
:1018300031333A33353A32330052455455524E0023
:101840006D00204D61743A003A005072696E7469FF
:101850006E673A003A004D616368696E65206F6E8D
:1018600020666F723A0052455455524E00746F20F4
:1018700064656661756C743F0052657365742065BC
:10188000766572797468696E67004E4F00594553EA
:10189000003F3F3F0043757272656E742045004300
:1018A000757272656E74205A0043757272656E743B
:1018B00020582F59004D6178207370656564205A57
:1018C000004D61782073706565642059004D617822
:1018D000207370656564205800582F59204A65723E
:1018E0006B00416363656C65726174696F6E003C87
:1018F0002052455455524E006D41006D41006D41DE
:10190000006D6D2F736563006D6D2F736563006DE2
:101910006D2F736563006D6D2F736563006D6D2FA3
:101920007365635E32006D410043757272656E745B
:101930002045006D410043757272656E74205A0037
:101940006D410043757272656E7420582F59006D99
:101950006D2F736563004D61782073706565642039
:101960005A006D6D2F736563004D6178207370654B
:1019700065642059006D6D2F736563004D6178209B
:1019800073706565642058006D6D2F736563005832
:101990002F59204A65726B0030306D6D2F7365636F
:1019A0005E3200416363656C65726174696F6E00DD
:1019B0004D4F54494F4E003F3F3F0020476C6F77DB
:1019C000207768656E20646F6E6500204F6E20770B
:1019D00068696C65207072696E74696E6700204179
:1019E0006C77617973204F66660020416C7761796E
:1019F00073204F6E004272696768746E657373007E
:101A00003C2052455455524E002500250042726933
:101A10006768746E657373004C4544004732382024
:101A20005830205930004731204625692058256913
:101A3000205925690047323820583020593000524B
:101A4000455455524E0053455454494E4753004354
:101A500048414E474500666F72206D61746572693A
:101A6000616C2072656D6F76616C004865617469A8
:101A70006E67207072696E74686561640052657685
:101A8000657273696E67206D6174657269616C005F
:101A900052656D6F7665206D6174657269616C0069
:101AA00043414E43454C00524541445900250046B0
:101AB000616E3A2000430043002500466C6F773A80
:101AC000006D6D004D4154455249414C006D6174AB
:101AD000657269616C20696E73657274696F6E00FE
:101AE000436F6F6C696E67207072696E74686561B0
:101AF0006420666F720048656174696E6720707259
:101B0000696E746865616420666F7200430043000B
:101B100054656D7065726174757265004D41544510
:101B20005249414C003C2052455455524E0052659A
:101B30007472616374696F6E3A20006D6D2F73006B
:101B40006D6D20004D4154455249414C0052657421
:101B500072616374206C656E677468003F3F3F007C
:101B600052657472616374207370656564003C2013
:101B700052455455524E006D6D2F736563006D6D67
:101B8000006D6D2F7365630052657472616374201C
:101B90007370656564006D6D005265747261637485
:101BA000206C656E67746800524554524143544935
:101BB0004F4E003C2052455455524E004E65772002
:101BC0007072657365740050524553455453005408
:101BD000504C41005050005450552039354100437D
:101BE00050452B004E796C6F6E00504300435045BA
:101BF0000041425300504C41006C63645F6D61745E
:101C0000657269616C5F72657365745F6465666156
:101C1000756C7473006563686F3A007C3C3E5E2BA4
:101C20003D3F2F5B5D3B2C2A225C00202D20496E1E
:101C300076616C6964206578747275646572206E73
:101C4000756D626572202100000000001807010018
:101C5000A807140030082800B8083C0038095000D4
:101C6000C0096400480A7800C80A8C00480BA0002C
:101C7000C80BB400480CC800C80CDC00400DF000D4
:101C8000C00D0401380E1801B00E2C01280F4001C0
:101C9000A00F54011810680188107C0100119001F8
:101CA0003013F401481558024017BC0228192003CC
:101CB000F01A8403A81CE803401E4C043A2045781F
:101CC00074727564657220737769746368656420E3
:101CD0006F66662E204D415854454D5020747269F0
:101CE0006767657265642021003A204578747275D3
:101CF000646572207377697463686564206F6666D3
:101D00002E204D494E54454D5020747269676765C9
:101D100072656420210054656D706572617475721E
:101D20006520686561746564206265642073776905
:101D30007463686564206F66662E204D4158544573
:101D40004D502074726967676572656420212100B7
:101D50004572726F723A0000002100240027002AA9
:101D6000002D003000330001010000040107010ACA
:101D70000100002200250028002B002E0031003435
:101D80000002010000050108010B0105050505071A
:101D90000508080808020202020A0A0808040404E6
:101DA0000401010101010101010303030303030312
:101DB00003040707070C0C0C0C0C0C0C0C020202A1
:101DC0000206060606060606060B0B0B0B0B0B0B94
:101DD0000B01021020200808102040102040800233
:101DE0000102010804020101020408102040808061
:101DF00040201008040201800402018040201008E5
:101E000004020108040201010204081020408001BC
:101E10000204081020408000000A0B02090C0D0E7D
:101E2000080703040100000000000000000000009B
:101E300000000000000000000000000000000000A2
:101E4000000000121110000000000000000000005F
:101E500000000000000000000000000000746F207F
:101E6000696E73657274206D6174657269616C2E40
:101E700000746865206E65787420737465702069DD
:101E80007300746865206275696C64706C61746558
:101E9000004E6F772074686174207765206C6576DA
:101EA000656C65640031312F323100434F4E544927
:101EB0004E554500556C74696D616B6572322E002C
:101EC000696E7365727420696E2074686973006D41
:101ED0006174657269616C20796F752077696C6CCB
:101EE000004E6578742C2073656C6563742074688B
:101EF000650031322F32310052454144590053655B
:101F00006C65637420746865206D617465726961C5
:101F10006C00206173206D6174657269616C2C00C6
:101F200031332F3231004D4154455249414C006903
:101F30007320746869732072696768743F00596F11
:101F40007520686176652063686F73656E00313453
:101F50002F3231004E4F0059455300697420697388
:101F6000207573696E672E006F66206D61746572EF
:101F700069616C006B6E6F77732077686174206B9A
:101F8000696E64004E6F7720796F757220556C749E
:101F9000696D616B6572320031352F323100434F0C
:101FA0004E54494E5545006D6174657269616C20EF
:101FB0006C6F6164696E67007072696E74686561E8
:101FC000642068656174696E6720666F7200506C8A
:101FD0006561736520776169742C0031362F323169
:101FE0000061626F766520746865206172726F7738
:101FF0002E00796F757220556C74696D616B657216
:10200000322C0066726F6D20746865207265617293
:10201000206F6600496E73657274206E6577206D5F
:102020006174657269616C0031372F323100434F42
:102030004E54494E5545004C6F6164696E67206D82
:102040006174657269616C2E2E2E0031382F323129
:102050000066726F6D206E6F7A7A6C652E2E2E0080
:102060006D6174657269616C206578697473005084
:1020700075736820627574746F6E207768656E0082
:1020800031392F323100434F4E54494E5545006D82
:10209000616B652061203344205072696E742100A9
:1020A00049276D207265616479206C65742773001F
:1020B00032302F32310041524520594F5520524580
:1020C0004144593F00746F207072696E74206974C6
:1020D0002100616E642070726573732074686520DE
:1020E000627574746F6E006F6E207468652053445F
:1020F0002D636172640053656C65637420612070A8
:1021000072696E742066696C650032312F3231005D
:102110004C45542753205052494E54005265616437
:10212000696E6720636172642E2E2E0032312F3269
:102130003100796F757220556C74696D616B6572D1
:10214000322E2E2E00746861742063616D652077D5
:1021500069746800506C6561736520696E7365729F
:10216000742053442D636172640032312F32310088
:1021700052455455524E00414456414E4345440049
:102180004255494C442D7C504C415445003F3F3F03
:1021900000466163746F72792072657365740052D2
:1021A000756E74696D652073746174730056657221
:1021B00073696F6E004D6F74696F6E207365747410
:1021C000696E6773005365742066616E2073706575
:1021D0006564004D6F7665206D6174657269616C30
:1021E00000496E73657274206D6174657269616C0B
:1021F000005261697365206275696C64706C61740A
:1022000065004C6F776572206275696C64706C61F3
:10221000746500486F6D652068656164004865619C
:10222000747570206275696C64706C6174650048C7
:102230006561747570206E6F7A7A6C65004C4544E8
:102240002073657474696E6773003C205245545561
:10225000524E0056657273696F6E204445560025D4
:10226000004300432F004300432F0025004732382E
:1022700020583020593000250046616E207370656B
:102280006564004731204625692058256920592575
:1022900069004732382058205900473120462569C7
:1022A000205A343000473238205A004D3834004725
:1022B0003238205A004D38340047323820582059DF
:1022C00000473238205A00414456414E43454400AD
:1022D0004300432F00436C69636B20746F20726569
:1022E0007475726E004E6F7A7A6C652074656D70CD
:1022F000657261747572653A004300432F00436C48
:1023000069636B20746F2072657475726E00526F12
:102310007461746520746F206578747275646500EB
:102320004E6F7A7A6C652074656D70657261747534
:1023300072653A005072696E74696E6720776974CD
:1023400068205553422E2E2E00756C74696D616B9A
:1023500065722E636F6D2F4552303700476F2074C2
:102360006F3A0058206F7220592073776974636840
:1023700020737475636B00756C74696D616B657245
:102380002E636F6D2F4552303700476F20746F3AC0
:102390000058206F72205920737769746368206237
:1023A000726F6B656E00756C74696D616B65722E12
:1023B000636F6D2F4552303600476F20746F3A00BF
:1023C0005A2073776974636820737475636B007542
:1023D0006C74696D616B65722E636F6D2F45523041
:1023E0003500476F20746F3A005A20737769746321
:1023F000682062726F6B656E00756C74696D616BDD
:1024000065722E636F6D2F4552303400476F207414
:102410006F3A005361666574792063697263756908
:102420007400756C74696D616B65722E636F6D2FCE
:102430004552303300476F20746F3A00486561742D
:102440006572206572726F7200756C74696D616B74
:1024500065722E636F6D2F4552303200476F2074C6
:102460006F3A0054656D702073656E736F72204211
:10247000454400756C74696D616B65722E636F6D98
:102480002F4552303100476F20746F3A0054656D0C
:10249000702073656E736F72004552524F52202D3B
:1024A0002053544F50504544004D41494E54454EE1
:1024B000414E4345004D4154455249414C00505214
:1024C000494E540043414E43454C00534420636100
:1024D0007264206F6B006F70656E526F6F74206650
:1024E00061696C656400766F6C756D652E696E69E7
:1024F00074206661696C6564004572726F723A009F
:10250000534420696E6974206661696C0065636874
:102510006F3A004D3234004D32332025730061751F
:10252000746F25692E670054696D65206C6566744B
:102530000054696D65206C65667420756E6B6E6FF6
:10254000776E004300430048656174696E672062DE
:1025500075696C64706C6174650043004300486584
:102560006174696E67005072696E74696E673A00D3
:1025700050415553450054554E450054554E450065
:102580004348414E47457C4D4154455249414C00DA
:10259000524553554D457C5052494E5400756C740C
:1025A000696D616B65722E636F6D2F455230380017
:1025B000476F20746F3A0072656164696E672053DB
:1025C000442D6361726421004572726F72207768D6
:1025D000696C650052455455524E20544F204D4170
:1025E000494E006F66207072696E74696E67206173
:1025F000726561005472696564207072696E7469F5
:102600006E67206F7574004552524F523A00524522
:102610005455524E20544F204D41494E0066726F22
:102620006D2074686520736C696365722E00736534
:102630007474696E6720776974682073657474694F
:102640006E67006F76657272696465206D6163689C
:10265000696E6500546869732066696C65207769E6
:102660006C6C0043414E43454C00434F4E54494E21
:102670005545002573207673202573006D617465C0
:102680007269616C2E00666F7220612064696666F3
:102690006572656E7400546869732066696C6520A4
:1026A000697320637265617465640043414E4345FC
:1026B0004C00434F4E54494E55450041626F727471
:1026C00020746865207072696E743F004E4F005927
:1026D00045530043004320005072696E74657220B8
:1026E000636F6F6C696E6720646F776E0042414361
:1026F0004B20544F204D454E550074686520707234
:10270000696E742E00596F752063616E2072656D5D
:102710006F7665005072696E742066696E697368C1
:102720006564004241434B20544F204D454E5500B7
:102730004C4544204272696768746E657373005239
:10274000657472616374696F6E004D61746572695E
:10275000616C20666C6F770046616E2073706565F2
:1027600064004275696C64706C6174652074656D99
:10277000702E0054656D70657261747572650053DA
:10278000706565640041626F7274003C205245546C
:1027900055524E002500250025004300430043000C
:1027A000430025004300432F00436C69636B207492
:1027B0006F2072657475726E004E6F7A7A6C652048
:1027C00074656D70657261747572653A00250042BA
:1027D00072696768746E6573730025004D61746576
:1027E0007269616C20666C6F7700250046616E200F
:1027F00073706565640025005072696E7420737093
:102800006565640054554E45005265747261637489
:10281000206C656E677468003F3F3F0052657472BC
:10282000616374207370656564003C2052455455A3
:10283000524E006D6D2F736563006D6D006D6D2FD1
:1028400073656300526574726163742073706565AB
:1028500064006D6D0052657472616374206C656E06
:102860006774680052455452414354494F4E004DDD
:10287000363031205835205935205A2569204C25CD
:10288000690020746F6F206C6F6E672065787472BA
:102890007573696F6E2070726576656E746564001D
:1028A00020636F6C6420657874727573696F6E2035
:1028B00070726576656E746564006563686F3A0072
:1028C000507265763A2000000000000000005F00B2
:1028D000000007000700147F147F14242A7F2A12A7
:1028E0002313086462364955225000050300000096
:1028F0001C2241000041221C00082A1C2A0808084A
:102900003E08080050300000080808080800606011
:10291000000020100804023E5149453E00427F401D
:102920000042615149462141454B311814127F1034
:1029300027454545393C4A49493001710905033667
:1029400049494936064949291E00363600000056D5
:1029500036000000081422411414141414412214E7
:1029600008000201510906324979413E7E111111D8
:102970007E7F494949363E414141227F4141221CE7
:102980007F494949417F090901013E414151327F57
:102990000808087F00417F41002040413F017F0837
:1029A0001422417F404040407F0204027F7F0408A0
:1029B000107F3E4141413E7F090909063E415121B8
:1029C0005E7F09192946464949493101017F0101C4
:1029D0003F4040403F1F2040201F7F2018207F6342
:1029E000140814630304780403615149454300004B
:1029F0007F4141020408102041417F000004020190
:102A0000020440404040400001020400205454545D
:102A1000787F484444383844444420384444487F0C
:102A20003854545418087E090102081454543C7F49
:102A30000804047800447D40002040443D00007FAD
:102A400010284400417F40007C041804787C08046E
:102A5000047838444444387C1414140808141418B6
:102A60007C7C080404084854545420043F4440200B
:102A70003C4040207C1C2040201C3C4030403C44DA
:102A8000281028440C5050503C4464544C440008D6
:102A900036410000007F0000004136080008082A87
:102AA0001C08081C2A080824F4D43050C38E20C205
:102AB000A24017828B7011127A910D816CD90AA8ED
:102AC00061E108C7586607615143061E4B5D05C1A9
:102AD00045A7041A411104093D9803713931034097
:102AE00036DB0265339102D4305402802E1D02631E
:102AF0002CEE01752AC501B028A001102781018F95
:102B00002564012B244B01E0223401AC211F018DEF
:102B1000200D01801FFC00841EED00971DDF00B812
:102B20001CD200E61BC600201BBC00641AB200B217
:102B300019A8000A19A0006A189900D1179100403D
:102B4000178B00B516840031167E00B31579003A54
:102B5000157300C7146F0058146A00EE13660088DE
:102B600013630025135E00C7125B006C125700153B
:102B7000125400C111510070114F0021114B00D6A9
:102B80001049008D1047004610440002104200C05A
:102B90000F4000800F3E00420F3C00060F3B00CB71
:102BA0000E3800930E37005C0E3500270E3400F30C
:102BB0000D3200C10D3100900D3000600D2E00323D
:102BC0000D2D00050D2C00D90C2B00AE0C29008515
:102BD0000C29005C0C2700350C27000E0C2600E8A1
:102BE0000B2400C40B2400A00B23007D0B23005AF0
:102BF0000B2100390B2100180B2000F80A1F00D907
:102C00000A1E00BB0A1E009D0A1D00800A1D0063EB
:102C10000A1C00470A1B002C0A1B00110A1A00F7A5
:102C2000091A00DD091900C4091900AB091900923D
:102C30000917007B091800630917004C09160036B4
:102C4000091600200916000A091500F5081500E00C
:102C5000081400CC081400B8081400A4081400904C
:102C60000813007D0812006B081300580812004674
:102C70000812003408110023081100120811000185
:102C8000081100F0071000E0071000D0071000C086
:102C9000071000B0070F00A107100091070E008376
:102CA000070F0074070F0065070E0057070E004955
:102CB000070E003B070D002E070E0020070D001326
:102CC000070D0006070D00F9060C00ED060D00E0EB
:102CD000060C00D4060C00C8060C00BC060C00B0A4
:102CE000060C00A4060B0099060C008D060B008252
:102CF000060B0077060B006C060B0061060A0057F6
:102D0000060B004C060A0042060A0038060A002E8E
:102D1000060A0024060A001A060A0010060900071F
:102D2000060A00FD050900F4050900EB050900E2AB
:102D3000050900D9050900D0050900C7050900BE2D
:102D4000050900B5050800AD050800A50509009CAA
:102D5000050800940508008C050800840508007C1F
:102D6000050800740508006C050700650508005D8E
:102D7000050700560508004E0507004705070040F7
:102D800005080038050700310507002A050700235C
:102D90000507001C050600160507000F05070008BB
:102DA00005060002050700FB040600F5040700EE17
:102DB000040600E8040600E2040700DB040600D570
:102DC000040600CF040600C9040600C3040600BDC3
:102DD000040600B7040600B1040500AC040600A612
:102DE000040600A00405009B04060095040500905D
:102DF0000406008A04050085040500800406007AA4
:102E000004050075040500700405006B04050066E8
:102E1000040500610405005C040500570405005228
:102E20000405004D04050048040500430405003E68
:102E30000404003A04050035040500300404002CA5
:102E400004050027040400230405001E0404001ADE
:102E500004040016040500110404000D0404000914
:102E60000405000404040000040400FC030400F84A
:102E7000030400F4030400F0030400EC030400E87E
:102E8000030400E4030400E0030400DC030400D8AE
:102E9000030400D4030400D0030400CC030400C8DE
:102EA000030300C503030024F404D9201BC40C5CF5
:102EB0000E9804C4095F0265077101F405F900FB6F
:102EC00004B30048048700C1036900580355000398
:102ED000034500BE023A008402310053022A002951
:102EE00002250004022000E4011C00C8011900AF03
:102EF0000117009801140084011300710110006192
:102F000001100051010E0043010D0036010B002B92
:102F1000010B0020010B00150109000C0109000341
:102F2000010800FB000800F3000800EB000700E4C4
:102F3000000600DE000600D8000600D2000600CC25
:102F4000000500C7000500C2000500BD000400B96F
:102F5000000400B5000400B1000400AD000400A9A5
:102F6000000400A5000300A20003009F0004009BD2
:102F700000030098000300950002009300030090F6
:102F80000003008D0002008B000300880002008611
:102F900000020084000300810002007F0002007D27
:102FA0000002007B00020079000200770001007639
:102FB0000002007400020072000100710002006F44
:102FC0000002006D0001006C0002006A000100694F
:102FD0000002006700010066000100650001006456
:102FE0000002006200010061000100600001005F5A
:102FF0000002005D0001005C0001005B0001005A5E
:10300000000100590001005800010057000100565E
:10301000000100550001005400010053000000535E
:103020000001005200010051000100500001004F5A
:103030000001004E0000004E0001004D0001004C58
:103040000001004B0000004B0001004A0001004954
:103050000001004800000048000100470001004650
:10306000000000460001004500000045000100444A
:103070000001004300000043000100420000004244
:103080000001004100000041000100400001003F3C
:103090000000003F0001003E0000003E0001003D36
:1030A0000000003D0001003C0000003C0000003C2E
:1030B0000001003B0000003B0001003A0000003A24
:1030C000000100390000003900010038000000381C
:1030D0000000003800010037000000370001003612
:1030E0000000003600000036000100350000003509
:1030F00000000035000100340000003400000034FE
:1031000000010033000000330000003300010032F2
:1031100000000032000000320001003100000031E8
:1031200000000031000100300000003000000030DD
:103130000001002F0000002F0000002F0000002FD2
:103140000001002E0000002E0000002E0001002DC6
:103150000000002D0000002D0000002D0001002CBB
:103160000000002C0000002C0000002C0001002BAF
:103170000000002B0000002B0000002B0001002AA3
:103180000000002A0000002A0000002A0001002997
:10319000000000290000002900000029000000298B
:1031A000000100280000002800000028000000287E
:1031B0000000002800010027000000270000002771
:1031C0000000002700000027000100260000002664
:1031D0000000002600000026000000260001002557
:1031E000000000250000002500000025000000254B
:1031F000000000250001002400000024000000243D
:10320000000000240000002400010023000000232F
:103210000000002300000023000000230000002322
:103220000000002300010022000000220000002214
:103230000000002200000022000000220001002106
:1032400000000021000000210000002100000021FA
:1032500000000021000000210001002000000020EB
:1032600000000020000000200000002000000020DE
:1032700000000020000000200001001F0000001FCF
:103280000000001F0000001F0000001F0000001FC2
:103290000000001F0001001E0000001E0000001EB4
:1032A0000000001E000000801506060606FEFEFE59
:1032B000FEFC00000000000000FCFEFEFEFC000022
:1032C000000EFEFEFEFE0000E0FCFEFEFCE0E00064
:1032D0000000CECECE000000C0C0C0C0C0C0800084
:1032E000000000000080C0C08000000000000080DE
:1032F00080C0C0C0C0C0C0C080800000000006FE0A
:10330000FEFEFE0000000080C0C0C0000000000003
:10331000008080C0C0C080808000000000C0C0C0AD
:10332000C00080C0C0C0C08000000000007FFFFF60
:10333000FFFF80000000000080FFFFFFFFFF000094
:103340000000FFFFFFFF000000FFFFFFFF00000085
:103350000000FFFFFF00000081F1FFFF3F0F3FFF74
:10336000FCF0F0FCFF3F0F3FFFFEF880000000C1C3
:10337000E1F1F17131010183FFFFFFFC000000FF6B
:10338000FFFFFF000C3EFFFFF7C301000000FCFE43
:10339000FF8703113131333F3F3F1E000001FFFF24
:1033A000FFFF07030101010100000000000001030D
:1033B00007070F0F0F0F0F0F0F0707070F0F06005D
:1033C0000000070F0F07000000070F0F07000000A5
:1033D00000000F0F0F0000060F0F07010000000193
:1033E000070F0F070100000001070F0F0600000381
:1033F000070F0F0E0E060703070F0F070000000749
:103400000F0F0700000000030F0F0F06000000035E
:1034100007070F0E0E0E0E0E0E06000000000F0F17
:103420000F0F0000000000000043616E6E6F7420FB
:103430006F70656E2073756264697200577269748B
:10344000696E6720746F2066696C653A20002E00F3
:103450006F70656E206661696C65642C2046696CCE
:10346000653A20002E006F70656E206661696C659C
:10347000642C2046696C653A200046696C652073AF
:10348000656C6563746564002053697A653A200051
:1034900046696C65206F70656E65643A20002E0089
:1034A0006F70656E206661696C65642C2046696C7E
:1034B000653A20004D383400473238004732382012
:1034C0005A300047323820583020593000473120D8
:1034D0004625692045300047393220452569004D91
:1034E000343031003C204241434B003C2052455493
:1034F00055524E004E6F20696E666F20617661698D
:103500006C61626C65004E6F7A7A6C653A20006D72
:10351000006D004D6174657269616C3A20005469F8
:103520006D653A20003B4D545950453A003B4E4F93
:103530005A5A4C455F4449414D455445523A003B27
:103540004D4154455249414C3A003B54494D453A4E
:1035500000466F6C6465720043616E6E6F74206527
:103560006E746572207375626469723A2000534408
:103570002043415244004731204631323030302020
:1035800058352059313000473238003B464C4156BF
:103590004F523A556C746947436F6465003B464C23
:1035A00041564F523A556C746947436F6465004EFB
:1035B0006F2066696C657320666F756E6421004FBD
:1035C0004B004F4B0052656164696E672063617206
:1035D000642E2E2E00506C6561736520696E7365D4
:1035E00072742063617264004E6F2053442D434116
:1035F00052442100507265706172696E6720746F69
:10360000207072696E743A0048656174696E672053
:1036100075702E2E2E0041424F52540054554E4587
:10362000004578706F727420746F20534400496DA8
:10363000706F72742066726F6D205344004375730F
:10364000746F6D697A65003C2052455455524E00A6
:10365000250046616E3A2000430043002500466C79
:103660006F773A006D6D004C6F61647320616C6C14
:10367000206D6174657269616C7300536176657366
:1036800020616C6C206D6174657269616C73004DB2
:103690006F64696679207468652073657474696EF7
:1036A0006773004D4154455249414C0053656C6568
:1036B00063746564206D6174657269616C3A004F72
:1036C0004B003F3F3F0053746F7265206173207061
:1036D00072657365740052657472616374696F6EAC
:1036E00000466C6F7720250046616E004469616D6D
:1036F0006574657200486561746564206275696C03
:1037000064706C6174650054656D70657261747588
:103710007265003C2052455455524E00250025004C
:103720006D6D00430043200043200025004D61746F
:10373000657269616C20666C6F7700250046616E6A
:10374000207370656564006D6D004D61746572690C
:10375000616C204469616D65746572004300427557
:10376000696C64706C6174652054656D702E004DD9
:103770004154455249414C003C2052455455524E0B
:103780000054656D70657261747572653A200052FF
:103790006573656E643A20006F6B0000ECE6CBE663
:1037A00011241FBECFEFD1E2DEBFCDBF00E00CBFC2
:1037B00013E0A0E0B2E0EEECF7EE01E00BBF02C0D8
:1037C00007900D92A033B107D9F729E1A0E3B3E048
:1037D00001C01D92AC3EB207E1F71BE1CFECDBE18B
:1037E00000E006C021970109802FFE010E942BF303
:1037F000CE3CD10780E00807A9F70E9436DA0C9486
:10380000D6F30C9400002F923F924F925F926F92EA
:103810007F928F929F92AF92BF92CF92DF92EF9260
:10382000FF920F931F93CF93DF93CDB7DEB7CB56A5
:10383000D1090FB6F894DEBF0FBECDBF1092AE0F08
:1038400087E40E94785BF82E882309F409C40E945B
:103850009E5B0E94BCF06A30710509F48EC084F44E
:103860006230710581F124F477FF23C00C94F236A5
:103870006330710581F164307105C1F10C94F23649
:103880006A35710509F4ACC354F46B30710509F461
:103890000AC16C31710509F47CC10C94F2366B35A8
:1038A000710509F4A1C36C35710509F4A2C30C9428
:1038B000F2368091B004811106C00E94474F0E94E9
:1038C000874E0C94CE3C8091B004811104C00E94BC
:1038D000A35081E007C08091B004811107C00E940D
:1038E000A35080E00E94464B0C94CE3C80E50E94A1
:1038F000785B882339F00E949E5B0E94C2F06B01C6
:103900007C0103C0C12CD12C760183E50E94785B39
:10391000882361F00E949E5B20E030E04AE754E497
:103920000E9485E70E94C2F06B017C010E9485BE67
:103930000E94DC81C60ED71EE81EF91E0E94DC81A3
:103940006093FD077093FE078093FF079093000834
:1039500081E08093AE0F0E94DC816C157D058E05A1
:103960009F0510F00C94F2360E947F850E94A24AB7
:103970000E9424940E9405A9EECF8091DF19811145
:103980000C94F23680915B0B90915C0BA0915D0BD7
:10399000B0915E0B8093C20A9093C30AA093C40AAD
:1039A000B093C50A80915F0B9091600BA091610B61
:1039B000B091620B8093C60A9093C70AA093C80A7D
:1039C000B093C90A8091630B9091640BA091650B31
:1039D000B091660B8093CA0A9093CB0AA093CC0A4D
:1039E000B093CD0AC090670BD090680BE090690B44
:1039F000F0906A0BE091830B24E0E29FF001112428
:103A0000E158F44F208131814281538160914B0212
:103A100070914C0280914D0290914E020E944BF0A9
:103A20009B01AC01C701B6010E9469EF9B01AC018B
:103A30006093CE0A7093CF0A8093D00A9093D10AF4
:103A400080902E0290902F02A0903002B090310210
:103A50008091470290914802A0914902B0914A0298
:103A600080932E0290932F02A0933002B0933102E4
:103A7000C701B6010E9469EF6093E3077093E40702
:103A80008093E5079093E60781E08093DF190E9419
:103A9000874E80922E0290922F02A0923002B09216
:103AA00031020C94F2368091DF19882311F40C94C2
:103AB000F23680915B0B90915C0BA0915D0BB09105
:103AC0005E0B8093C20A9093C30AA093C40AB0937A
:103AD000C50A80915F0B9091600BA091610BB09132
:103AE000620B8093C60A9093C70AA093C80AB0934A
:103AF000C90A8091630B9091640BA091650BB09102
:103B0000660B8093CA0A9093CB0AA093CC0AB09319
:103B1000CD0A2091E3073091E4074091E5075091E9
:103B2000E6076091670B7091680B8091690B90912B
:103B30006A0B0E946AEF6093CE0A7093CF0A80935B
:103B4000D00A9093D10AC0902E02D0902F02E0901C
:103B50003002F09031028091160290911702A091EC
:103B60001802B091190280932E0290932F02A09315
:103B70003002B09331021092DF190E94874EC0923A
:103B80002E02D0922F02E0923002F09231020C9479
:103B9000F23685E08093AE0F80902E0290902F0237
:103BA000A0903002B090310280914502909146027F
:103BB000909331038093300384E690E09093460223
:103BC000809345020E94DC816093FD077093FE079D
:103BD0008093FF079093000811E0109315028091E5
:103BE0005B0B90915C0BA0915D0BB0915E0B809391
:103BF000C20A9093C30AA093C40AB093C50A8091E5
:103C00005F0B9091600BA091610BB091620B809360
:103C1000C60A9093C70AA093C80AB093C90A8091B4
:103C2000630B9091640BA091650BB091660B809330
:103C3000CA0A9093CB0AA093CC0AB093CD0A809184
:103C4000670B9091680BA091690BB0916A0B809300
:103C5000CE0A9093CF0AA093D00AB093D10A1092C3
:103C60002E0210922F02109230021092310288E53B
:103C70000E94785B882311F080E009C089E50E94EA
:103C8000785B8111F9CF8AE50E94785B8127809368
:103C90000402882309F4F4C010925B0B10925C0BB1
:103CA00010925D0B10925E0B10925F0B1092600BE6
:103CB0001092610B1092620B1092630B1092640BC6
:103CC0001092650B1092660B0E94619C80E090E060
:103CD000A5EAB3EC8093C20A9093C30AA093C40AE6
:103CE000B093C50A80E090E4A2E9B3E48093C60AE9
:103CF0009093C70AA093C80AB093C90A80E090E0E5
:103D0000A5EAB3E48093CA0A9093CB0AA093CC0AA5
:103D1000B093CD0A80E090E8ABEBB5E480932E023F
:103D200090932F02A0933002B093310243E8C42E47
:103D30004BE0D42EE12CF12C08EC12E42EEC3AE00E
:103D40004AEC5AE066EC7AE082EC9AE00E948CAA97
:103D50000E9485BE0E9436C580E090E00E94405BD4
:103D600081E090E00E94405B82E090E00E94405B36
:103D70000E94619C80915B0B90915C0BA0915D0B0C
:103D8000B0915E0B8093C20A9093C30AA093C40AB9
:103D9000B093C50A80915F0B9091600BA091610B6D
:103DA000B091620B8093C60A9093C70AA093C80A89
:103DB000B093C90A8091630B9091640BA091650B3D
:103DC000B091660B8093CA0A9093CB0AA093CC0A59
:103DD000B093CD0A20E030E040E752E460912E023B
:103DE00070912F0280913002909131020E944BF02D
:103DF0007B018C012EEC3AE04AEC5AE066EC7AE06A
:103E000082EC9AE00E948CAA10922E0210922F024D
:103E100010923002109231020E9485BE0E9436C577
:103E20008091C20A9091C30AA091C40AB091C50AB8
:103E300080935B0B90935C0BA0935D0BB0935E0B38
:103E40008091C60A9091C70AA091C80AB091C90A88
:103E500080935F0B9093600BA093610BB093620B08
:103E60008091CA0A9091CB0AA091CC0AB091CD0A58
:103E70008093630B9093640BA093650BB093660BD8
:103E80008091040281110C94F7368AE50E94785BD8
:103E900081110C94F7368091040281110C94FD3647
:103EA00088E50E94785B882331F089E50E94785B81
:103EB00081110C94FD368091040281110C94C93754
:103EC00088E50E94785B81110C94C93780910402C7
:103ED00081110C94CF3789E50E94785B81110C9495
:103EE000CF3788E50E94785B8823D1F00E94935BEE
:103EF000672B682B692BA1F00E949E5B2091E30A3F
:103F00003091E40A4091E50A5091E60A0E946AEF76
:103F100060935B0B70935C0B80935D0B90935E0BD7
:103F200089E50E94785B8823D1F00E94935B672B20
:103F3000682B692BA1F00E949E5B2091E70A3091CB
:103F4000E80A4091E90A5091EA0A0E946AEF6093F8
:103F50005F0B7093600B8093610B9093620B8AE50B
:103F60000E94785B8823D1F00E94935B672B682BBB
:103F7000692BA1F00E949E5B2091EB0A3091EC0A24
:103F80004091ED0A5091EE0A0E946AEF6093630B34
:103F90007093640B8093650B9093660B0E94619CF9
:103FA0001092150280922E0290922F02A09230025F
:103FB000B092310280913003909131039093460288
:103FC000809345020E94DC816093FD077093FE0799
:103FD0008093FF07909300080E9436C50C94F23638
:103FE0001092E8070C94F23681E08093E8070C9475
:103FF000F23685E40E94785B811102C00E9485BE82
:1040000022E9C22E22E0D22E3BE5E32E3BE0F32E46
:1040100010E0D6018D916D010E94785B8823C1F07C
:10402000133061F40E949E5BF70160837183828389
:10403000938387E69BE00E9480A80AC00E949E5B53
:10404000D7016D937D938D939C9313970E94619CF0
:104050001F5FB4E0EB0EF11C1430D9F60C94F2366D
:104060008DE40E94785B882311F40C9486340E94BE
:104070009E5B0E94BCF06C38710509F403C40CF01F
:10408000AAC06035710509F44AC60CF04CC067310E
:10409000710509F4F1C134F56231710509F44CC6BA
:1040A0009CF477FF02C00C94F236623071050CF478
:1040B00075C16131710511F00C94F236159846986E
:1040C000439840980C94F2366531710509F4C8C1E3
:1040D0000CF0CAC16431710511F00C94F236E7E4BA
:1040E000F6E075C16B31710509F403C23CF4693126
:1040F000710509F4ECC10CF4D5C1EDC16E31710547
:1041000009F497C234F46C31710509F460C20C945F
:10411000F2366F31710509F4F8C26A32710509F49B
:1041200050C30C94F2366A36710509F483C524F540
:104130006435710509F400C654F46235710509F45B
:10414000F2C50CF0F4C50A9A12980C94F2366C354C
:10415000710509F444C634F46535710509F424C6C3
:104160000C94F2366836710509F465C36936710539
:1041700009F4A4C30C94F2366337710509F47AC7C5
:104180008CF46D36710509F43FC46237710509F48A
:10419000ACC66B36710511F00C94F2361092C21059
:1041A0000C94F2366737710509F488C734F4653723
:1041B000710509F46EC70C94F2366837710509F47D
:1041C00079C76937710511F00C94F23681E080935C
:1041D00015020C94F236643FE1E07E0711F40C9472
:1041E000502F0CF05FC0613D710511F40C94072A4B
:1041F00044F56C3C710511F40C94132974F4693C7A
:10420000710509F4CEC76B3C710509F4EDC76E3B2F
:10421000710511F00C94F23650C46E3C710511F426
:104220000C94952914F40C9435296F3C710511F404
:104230000C94B429603D710511F40C94E5290C949B
:10424000F2366D3221E0720711F40C94202B94F4B5
:104250006D3D710511F40C947C2A6C3241E07407B9
:1042600011F40C94932A6C3D710511F00C94F23604
:104270000C946B2A6F3251E0750711F40C94012CE9
:1042800014F40C94EC2B603991E0790711F40C9440
:104290004D2F6139714011F00C94F2360E94FCBD33
:1042A0000C94F236603AB3E07B0709F4F9C19CF54F
:1042B0006935F2E07F0711F40C94592F94F4663FAE
:1042C00031E0730711F40C94562F14F40C94532F0F
:1042D000673F714011F00C94F2360E942F5E0C94EF
:1042E000F2366E3582E0780711F40C9421323CF4FA
:1042F0006D35724011F40C9468310C94F2366B38C1
:10430000B3E07B0711F40C94DE326B39734009F48F
:104310009EC10C94F2366231F7E27F0711F40C94DF
:10432000613324F5603137E2730711F40C941C33C8
:1043300014F00C941F33673E734011F00C94F23666
:104340001092B0048091010890910208A091030896
:10435000B09104088093B1049093B204A093B30485
:10436000B093B4040E94B9D90C94F236643187E258
:10437000780711F40C94E23314F40C94B2336531E1
:10438000A7E27A0711F40C9412346A31774211F0E3
:104390000C94F236EAEAF4E00C94493481E080931C
:1043A000B20D8091B20D882311F40C94F2360E9464
:1043B0007F850E94A24A0E9424940E9405A9F1CF01
:1043C0009091C00095FFFCCF8093C60031968491F8
:1043D0008111F6CF8091C00085FFFCCF8AE08093E9
:1043E000C6001092A80F1092A70F40E050E0BA014B
:1043F00084EE9DE00E9495788BE1E4EEFDE0DE0125
:10440000159601900D928A95E1F78091E20D9091B9
:10441000E30D9C838B8387EE92E09A838983BE01B0
:104420006F5F7F4F8DE293E00E94E2C7CE0101965D
:104430000E949F47E9E3F6E08491882341F0909140
:10444000C00095FFFCCF8093C6003196F5CF8091D8
:10445000C00085FFFCCF8AE08093C6000C94F23642
:104460000E94F39A0C94F2361092B10D1092B20D94
:104470001092DF0D0C94F2360091B5041091B60441
:104480000C5F1F4F6AE270E0C8010E9493F300972F
:1044900019F0FC013197108261E0C8010E94FBC550
:1044A0000C94F2368091DF0D882329F081E080930F
:1044B000B10D1092B20D0E94DC81609320047093C4
:1044C000210480932204909323040C94F2360E94DA
:1044D000D5C70C94F2368091DF0D882311F40C942B
:1044E000F2368091590F882311F40C94D5370C942F
:1044F000F2368091DF0D8823A9F1E1EBF2E084919F
:10450000882341F09091C00095FFFCCF8093C600B6
:104510003196F5CF6091A20F7091A30F8091A40FF7
:104520009091A50F4AE00E94F798EFEAF2E084919B
:10453000882341F09091C00095FFFCCF8093C60086
:104540003196F5CF60919A0F70919B0F80919C0FDF
:1045500090919D0F4AE00E94F7988091C00085FFDE
:10456000FCCF11C0EFE9F2E08491882341F09091F3
:10457000C00095FFFCCF8093C6003196F5CF8091A7
:10458000C00085FFFCCF8AE08093C6006091590F80
:10459000662311F40C94F236E3E9F2E08491882367
:1045A00041F09091C00095FFFCCF8093C6003196FA
:1045B000F5CF70E080E090E00E946C998091C0009F
:1045C00085FFFCCF8AE08093C6000C94F236809180
:1045D000B5049091B6046AE270E004960E9493F3E9
:1045E0008C01892BE1F02091D0073091D10740E672
:1045F000429FC001439F900D11246EE470E08053F0
:104600009B4F0E9493F360E270E00E9493F3019647
:104610009093B6048093B504F8013197108280918D
:10462000B5049091B60460E004960E94FBC50C941A
:10463000F2368091DF0D882311F40C94F2368091CC
:10464000590F882311F40C94EC370C94F236009136
:10465000B5041091B6040C5F1F4F6AE270E0C80108
:104660000E9493F3009719F0FC013197108261E0EA
:10467000C8010E94FBC58091DF0D882329F081E0ED
:104680008093B10D1092B20D0E94DC8160932004E2
:104690007093210480932204909323040C94F236A7
:1046A0008091B5049091B6046AE270E005960E948C
:1046B00093F38C01892BE1F02091D0073091D10741
:1046C00040E6429FC001439F900D11246EE470E0CC
:1046D00080539B4F0E9493F360E270E00E9493F33B
:1046E00001969093B6048093B504F8013197108237
:1046F0008091B5049091B60421E02093B00D60E064
:1047000005960E94FBC50C94F2360E94DC816093F2
:104710002404709325048093260490932704009129
:104720002004109121042091220430912304601B65
:10473000710B820B930B28EE33E040E050E00E94B7
:104740002EEFCA01B9012CE330E040E050E00E94B6
:104750002EEF7F936F933F932F938AE296E09F9380
:104760008F938E010F5F1F4F1F930F930E94ADEB2E
:10477000E3E8F7E084910FB6F894DEBF0FBECDBF3B
:10478000E3E8F7E0882349F09091C00095FFFCCF63
:104790008093C60031968491F5CFF80181918823EA
:1047A00039F09091C00095FFFCCF8093C600F6CF02
:1047B0008091C00085FFFCCF8AE08093C6000C94F6
:1047C000F23683E50E94785B882311F40C94F2366C
:1047D0000E949E5B0E94BCF0F62EE72E862F9E2D37
:1047E0008C0180E50E94785B882331F00F3F110532
:1047F00009F010F40C945D3988E090E0EAE5F2E00D
:10480000219131912817390711F40C94F23622E0E6
:10481000E239F207A9F78730910519F4F092C21036
:1048200004C097FF02C00C94F2366F2D7E2D0E94BB
:10483000F0800C94F23688E690E00E94A747811140
:104840000C94F23683E50E94785B882311F40C9473
:10485000F236009105080E949E5B10E00E94BCF0B9
:10486000F801EE0FFF1FE250F54F71836083643053
:10487000714014F40C94F23684E091E091838083CB
:104880000C94F23683E50E94785B882311F40C9433
:10489000F2360E949E5B0E94BCF07093010B609305
:1048A000000B6337710514F40C94F23683E790E043
:1048B0009093010B8093000B0C94F23689E690E004
:1048C0000E94A74781110C94F236E4E2F6E084914D
:1048D000882341F09091C00095FFFCCF8093C600E3
:1048E0003196F5CFE091050844E0E49FF0011124F2
:1048F000E650F54F608171818281938141E00E9491
:104900007E99E1E2F6E08491882341F09091C00025
:1049100095FFFCCF8093C6003196F5CFE091050856
:10492000F0E0EE0FFF1FE250F54F60817181072E1E
:10493000000C880B990B0E94E2EB41E00E947E99EB
:10494000EDE1F6E08491882341F09091C00095FF5D
:10495000FCCF8093C6003196F5CF6091F60A709136
:10496000F70A8091F80A9091F90A41E00E947E9935
:10497000EAE1F6E08491882341F09091C00095FF30
:10498000FCCF8093C6003196F5CF6091000B7091FB
:10499000010B072E000C880B990B0E94E2EB41E003
:1049A0000E947E99E6E1F6E08491882341F090919F
:1049B000C00095FFFCCF8093C6003196F5CFE09103
:1049C0000508F0E0EC5FF44F608170E080E090E07B
:1049D0000E946C99E1E1F6E08491882341F0909186
:1049E000C00095FFFCCF8093C6003196F5CF609153
:1049F000030B70E080E090E00E946C998091C00011
:104A000085FFFCCF0C9481348DE690E00E94A7478F
:104A100081110C94F23683E08093AE0F83E50E94FF
:104A2000785B8823A9F0009105080E949E5B10E046
:104A30000E94BCF0F801EE0FFF1FE250F54F7183AA
:104A400060836430714024F084E091E0918380833E
:104A50000E94DC812B013C01E09105080E2F10E043
:104A6000F801EE0FFF1FE250F54F60817181072EB4
:104A7000000C880B990B0E94E2EBF801EE0FFF1F70
:104A8000EE0FFF1FE650F54F11E02081318142818A
:104A900053810E94A8F118160CF010E088248A9423
:104AA000982C540166E0262E66E0362E74E0E72E40
:104AB00076E0F72E0AE00C94F93984E08093AE0F8B
:104AC00083E50E94785B882389F00E949E5B0E94A8
:104AD000BCF07093010B6093000B6337710534F0E9
:104AE00083E790E09093010B8093000B0E94DC81A0
:104AF0004B015C0101E016E07DEFE72E75E0F72E3B
:104B0000E9EFCE2EE5E0DE2EFAE07F2E8091000B5D
:104B10009091010B0297BC01990F880B990B0E9491
:104B2000E2EB9B01AC016091F60A7091F70A80916B
:104B3000F80A9091F90A0E94DCEB87FF6FC00E948F
:104B4000DC81DC01CB0188199909AA09BB09893EDE
:104B50009340A105B10508F458C0E091830B24E00F
:104B6000E29FF0011124E650F54F6081718182814E
:104B70009381F8012491E1E0F6E0222349F030919D
:104B8000C00035FFFCCF2093C60031962491F5CFAD
:104B900042E00E947E99F7018491EDEFF5E08823D1
:104BA00049F09091C00095FFFCCF8093C6003196EC
:104BB0008491F5CF6091830B70E080E090E00E94DB
:104BC0006C99F6018491E9EFF5E0882349F0909122
:104BD000C00095FFFCCF8093C60031968491F5CF3D
:104BE0006091F60A7091F70A8091F80A9091F90A9B
:104BF00041E00E947E998091C00085FFFCCF7092B9
:104C0000C6000E94DC814B015C010E947F850E94EE
:104C1000A24A0E9424940E9405A978CF0E94DC81B8
:104C20006093FD077093FE078093FF079093000841
:104C30000C94F23683E50E94785B882309F461C006
:104C40000E949E5B6B017C0180915902682F70E08D
:104C500080E090E00E94E2EB9B01AC01C701B6014D
:104C60000E9485E720E030E048EC52E40E944BF0DF
:104C700020E030E0A9010E94DCEB87FD3BC00E94F0
:104C80009E5B6B017C0180915902682F70E080E08F
:104C900090E00E94E2EB9B01AC01C701B6010E94CB
:104CA00085E720E030E048EC52E40E944BF020E041
:104CB00030E04FE753E40E94A8F11816ECF00E9490
:104CC0009E5B6B017C0180915902682F70E080E04F
:104CD00090E00E94E2EB9B01AC01C701B6010E948B
:104CE00085E720E030E048EC52E40E944BF00E945F
:104CF000C2F003C060E001C06FEF6093C2100C947B
:104D0000F23680915902FFEF8F9FC001112464E6B3
:104D100070E00E94FCF26093C2100C94F2360A9A82
:104D2000129A0C94F2361092EC070C94F23681E051
:104D30008093EC070C94F23683E50E94785B88231D
:104D4000A1F00E949E5B20E030E04AE754E40E941C
:104D500085E70E94C2F060932A0270932B02809331
:104D60002C0290932D020C94F23688E50E94785B19
:104D700081110C94A73A89E50E94785B81110C940B
:104D8000A73A8AE50E94785B81110C94A73A85E4E2
:104D90000E94785B81110C94A73A0E9485BE409ACC
:104DA0000E9495BE0C94F23683E50E94785B8823BE
:104DB00011F40C94F2360E949E5B20E030E04AE74A
:104DC00054E40E9485E70E94C2F06093F907709353
:104DD000FA078093FB079093FC070C94F23652E994
:104DE000852E52E0952E04E91BE066EAA62E60E1CE
:104DF000B62E27EC30E13DAF2CAF312CD4018D9194
:104E00004D010E94785B882309F45EC0B3E03B1239
:104E100054C00E949E5B2B013C0120E030E040EA40
:104E200051E40E94DCEB87FF41C0A3019201F8012D
:104E300060817181828193810E944BF06B017C01C2
:104E40009B01AC016091921070919310809194102D
:104E5000909195100E9485E7609392107093931043
:104E60008093941090939510A7019601D5016D91B0
:104E70007D918D919C910E9485E7F50160837183FE
:104E800082839383ACADBDAD6D917D918D919C91ED
:104E90000E94E0EBA70196010E9485E70E94C2F004
:104EA000ECADFDAD6083718382839383D8014D9215
:104EB0005D926D927C92139707C00E949E5BF801F1
:104EC000608371838283938333940C5F1F4FF4E07C
:104ED000AF0EB11C2CAD3DAD2C5F3F4F3DAF2CAFA5
:104EE00034E033128BCF0C94F236E6EFF5E0849188
:104EF000882341F09091C00095FFFCCF8093C600BD
:104F00003196F5CF60915B0B70915C0B80915D0BDE
:104F100090915E0B42E00E947E99E3EFF5E0849170
:104F2000882341F09091C00095FFFCCF8093C6008C
:104F30003196F5CF60915F0B7091600B8091610BA2
:104F40009091620B42E00E947E99E0EFF5E084913F
:104F5000882341F09091C00095FFFCCF8093C6005C
:104F60003196F5CF6091630B7091640B8091650B66
:104F70009091660B42E00E947E99EDEEF5E08491FF
:104F8000882341F09091C00095FFFCCF8093C6002C
:104F90003196F5CF6091670B7091680B8091690B2A
:104FA00090916A0B42E00E947E99E2EEF5E08491D6
:104FB000882341F09091C00095FFFCCF8093C600FC
:104FC0003196F5CF0E94EEBD0E94E2EB2091940B4A
:104FD0003091950B4091960B5091970B0E944BF09E
:104FE00042E00E947E99EFEDF5E08491882341F044
:104FF0009091C00095FFFCCF8093C6003196F5CF0D
:1050000081E00E94EEBD0E94E2EB2091980B30916E
:10501000990B40919A0B50919B0B0E944BF042E0F0
:105020000E947E99ECEDF5E08491882341F0909107
:10503000C00095FFFCCF8093C6003196F5CF82E08B
:105040000E94EEBD0E94E2EB20919C0B30919D0BE3
:1050500040919E0B50919F0B0E944BF042E00E94AA
:105060007E998091C00085FFFCCF8AE08093C600C6
:105070000C94F236E6E3F5E08491882311F40C9465
:10508000F2369091C00095FFFCCF8093C600319618
:10509000F3CF8091B5049091B6046AE270E0059672
:1050A0000E9493F3009711F40C94F236DC011C92E9
:1050B0000C94F236109215020C94F236EDE1F5E004
:1050C0008491882341F09091C00095FFFCCF80939C
:1050D000C6003196F5CF8091C00085FFFCCF8AE0F5
:1050E0008093C600E5E1F5E08491882341F090913A
:1050F000C00095FFFCCF8093C6003196F5CF009B92
:1051000003C0E6E0F5E00AC0EBE0F5E007C09091EF
:10511000C00095FFFCCF8093C60031968491811129
:10512000F6CFEEEFF4E08491882341F09091C00037
:1051300095FFFCCF8093C6003196F5CF049B03C04A
:10514000EFEEF4E00AC0E4EFF4E007C09091C00095
:1051500095FFFCCF8093C600319684918111F6CFE4
:10516000E7EEF4E08491882341F09091C00095FF30
:10517000FCCF8093C6003196F5CF079B03C0E8EDC6
:10518000F4E00AC0EDEDF4E007C09091C00095FF97
:10519000FCCF8093C600319684918111F6CF0C9498
:1051A000F23637EDE32E30E1F32E02E912E044E06F
:1051B000D42ED00EF80181918F010E94785B882354
:1051C00051F00E949E5B0E94C2F0D7016D937D93C7
:1051D0008D939C931397B4E0EB0EF11CD012EACFA1
:1051E0000E94ACC50C94F23696EAE92E90E1F92EB5
:1051F00002E912E024E0D22ED00EF80181918F0155
:105200000E94785B882341F00E949E5BD7016D93DA
:105210007D938D939C931397B4E0EB0EF11CD01209
:10522000ECCF0C94F23683E50E94785B882351F032
:105230000E949E5B60939E1070939F108093A010BD
:105240009093A11084E50E94785B882311F40C945C
:10525000F2360E949E5B6093A2107093A31080931D
:10526000A4109093A5100C94F23683E50E94785B0D
:10527000882351F00E949E5B6093BA107093BB101C
:105280008093BC109093BD1084E50E94785B8823C6
:1052900051F00E949E5B6093BE107093BF1080938C
:1052A000C0109093C11082E40E94785B882361F063
:1052B0000E949E5B0E94C2F06093B6107093B7107C
:1052C0008093B8109093B91088E50E94785B88238A
:1052D00051F00E949E5B60939A1070939B10809394
:1052E0009C1090939D108AE50E94785B882351F072
:1052F0000E949E5B60939610709397108093981015
:105300009093991085E40E94785B882311F40C94A3
:10531000F2360E949E5B609392107093931080937C
:105320009410909395100C94F23613EEE12E1AE03F
:10533000F12E02E912E083E0D82ED00EF80181911F
:105340008F010E94785B882341F00E949E5BD70109
:105350006D937D938D939C931397B4E0EB0EF11CAA
:10536000D012ECCF0C94F23683E50E94785B882350
:1053700051F00E949E5B60934B0270934C028093AD
:105380004D0290934E0286E40E94785B882351F090
:105390000E949E5B6093470270934802809349028B
:1053A00090934A028AE50E94785B882311F40C945A
:1053B000F2360E949E5B60931A0270931B028093E8
:1053C0001C0290931D020C94F23683E50E94785BD8
:1053D000882351F00E949E5B6093E3077093E4077B
:1053E0008093E5079093E60786E40E94785B882324
:1053F00011F40C94F2360E949E5B60931602709337
:10540000170280931802909319020C94F23683E5E8
:105410000E94785B882311F40C94F2360E949E5B04
:105420000E94BCF06115710551F06130710569F49D
:1054300081E08093E7071092DF190C94F236109206
:10544000E7071092DF190C94F236E3E8F7E0849155
:10545000882341F09091C00095FFFCCF8093C60057
:105460003196F5CFE5ECF4E08491882341F09091FA
:10547000C00095FFFCCF8093C6003196F5CF809198
:10548000D0079091D10720E6289FF001299FF00DC9
:105490001124E053FB4F8191882339F09091C00093
:1054A00095FFFCCF8093C600F6CFE3ECF4E0849147
:1054B000882341F09091C00095FFFCCF8093C600F7
:1054C0003196F5CF8091C00085FFFCCF8AE08093B4
:1054D000C6000C94F23683E50E94785B882311F4B1
:1054E0000C94F2360E949E5B0E94BCF070934602C0
:1054F000609345020C94F23683E50E94785B882322
:1055000011F40C94F2360091830B10E00E949E5B24
:10551000000F111F015B1D4F0E94BCF0F801718349
:1055200060830C94F23683E50E94785B882331F027
:105530000E949E5B0E94C2F07B0103C0AEE6EA2E91
:10554000F12C80E50E94785B882311F40C94C03A1A
:105550000E949E5B0E94C2F08B01E114F10409F4E9
:1055600043C0970140E050E060E271EA87E090E0DC
:105570000E940FF369017A01F22FED2DA701013A84
:105580002FE0120710F000EA1FE09801A4EFB1E04D
:105590000E945AEF2F2F3E2F0E942EEFB601CC0C07
:1055A000DD1CCC0CDD1C85E0C81AD10880E090E041
:1055B000DC0182179307A407B50711F40C94F236A7
:1055C0005B9A6230710518F0F6013197F1F75B983C
:1055D0006230710518F0F6013197F1F70196A11DBF
:1055E000B11DE7CF08EE13E06801E12CF12C0E9419
:1055F000B7814B015C01C114D104E104F10411F441
:105600000C94F2360E94B781DC01CB01881999090C
:10561000AA09BB09883E9340A105B10560F391E05A
:10562000C91AD108E108F108A8EE8A0EA3E09A1E73
:10563000A11CB11CC114D104E104F10419F7DBCFA2
:1056400080E50E94785B882351F00E949E5B609306
:10565000360270933702809338029093390289E4BE
:105660000E94785B882381F00E949E5B2DEB37E3DC
:1056700046E05DE30E9485E76093090270930A02A9
:1056800080930B0290930C0284E40E94785B882341
:1056900081F00E949E5B2DEB37E346E05DE30E94C4
:1056A0004BF06093320270933302809334029093F4
:1056B000350283E40E94785B882351F00E949E5B50
:1056C00060930002709301028093020290930302A0
:1056D0000E94CB87E0ECF4E08491882341F0909124
:1056E000C00095FFFCCF8093C6003196F5CFECEB60
:1056F000F4E08491882341F09091C00095FFFCCFA5
:105700008093C6003196F5CF6091360270913702D2
:10571000809138029091390242E00E947E99E8EB34
:10572000F4E08491882341F09091C00095FFFCCF74
:105730008093C6003196F5CF2DEB37E346E05DE36D
:105740006091090270910A0280910B0290910C0203
:105750000E944BF042E00E947E99E4EBF4E08491D9
:10576000882341F09091C00095FFFCCF8093C60044
:105770003196F5CF2DEB37E346E05DE360913202E1
:105780007091330280913402909135020E9485E736
:1057900042E00E947E99E0EBF4E08491882341F09E
:1057A0009091C00095FFFCCF8093C6003196F5CF55
:1057B00060910002709101028091020290910302B7
:1057C00042E00E947E998091C00085FFFCCF8AE074
:1057D0008093C6000C94F23683E50E94785B8823A0
:1057E00019F00E949E5B03C060E070E0CB01609303
:1057F00051027093520280935302909354020C947E
:10580000F23685E40E94785B882341F00E949E5B1B
:105810000E94BCF08B0177FF03C011C000E010E0D4
:1058200028961FAE289729961FAE2997F6E12A964B
:10583000FFAF2A9723E42B962FAF2B970EC0289605
:105840001FAE289729961FAE29973CE82A963FAFAE
:105850002A9742E42B964FAF2B9783E50E94785B03
:10586000882371F00E949E5B28966FAF2897299637
:105870007FAF29972A968FAF2A972B969FAF2B97AA
:1058800083E40E94785B882349F00E949E5B0E941B
:10589000BCF0A7967FAF6EAFA79706C085E090E0FB
:1058A000A7969FAF8EAFA7970E94DC8127966CAF1B
:1058B0007DAF8EAF9FAF279702301105B4F0EEEFAA
:1058C000F3E08491882341F09091C00095FFFCCFD4
:1058D0008093C6003196F5CF8091C00085FFFCCF44
:1058E0008AE08093C6000C94F236EBEEF3E08491EC
:1058F000882341F09091C00095FFFCCF8093C600B3
:105900003196F5CF8091C00085FFFCCF8AE080936F
:10591000C6000E9432828FE717FF64C08093030B9A
:1059200027962CAD3DAD4EAD5FAD279765962CAF5C
:105930003DAF4EAF5FAF6597AB962CAF3DAF4EAF6F
:105940005FAFAB972C961FAE2C9730E466963FAFB7
:1059500066974CE167964FAF679756E468965FAFDE
:10596000689769961FAE69976A961FAE6A976B969D
:105970001FAE6B976C961FAE6C978FE790E0A0E020
:10598000B0E023968CAF9DAFAEAFBFAF23977FE75C
:10599000472E512C612C712CA3961CAE1DAE1EAE51
:1059A0001FAEA39791E06D969FAF6D9761961FAE66
:1059B0001EAE61971CAE212C312C1EAED801AC5FFF
:1059C000B44FA596BFAFAEAFA597C801880F991F7A
:1059D000880F991FFC01E650F54F6F96FFAFEEAFB1
:1059E0006F9709C0F801EC5FF44F808399CF0E9454
:1059F00024940E9405A98091020B882309F45EC1BA
:105A00000E945D8517FF0BC0F091F60AFCAF209055
:105A1000F70A3090F80A2091F90A2EAF0EC06F965F
:105A2000AEADBFAD6F97BC91BCAF6F96EEADFFADA5
:105A30006F9721803280F381FEAF2CAD322D432D44
:105A40005EAD69966FAD69976A967FAD6A976B9602
:105A50008FAD6B976C969FAD6C970E94A8F118164E
:105A600074F02CAD69962FAF69976A962FAE6A973E
:105A70006B963FAE6B973EAD6C963FAF6C972CAD7F
:105A8000322D432D5EAD2C966FAD2C9766967FAD73
:105A9000669767968FAD679768969FAD68970E94E7
:105AA000DCEB87FD0EC04CAD2C964FAF2C97669665
:105AB0002FAE669767963FAE67975EAD68965FAF0D
:105AC00068976D968FAD6D97882309F475C02896F9
:105AD0002FAD289729963FAD29972A964FAD2A9743
